{
  "_format": "hh-sol-artifact-1",
  "contractName": "BabCoinContract",
  "sourceName": "contracts/BabCoinContract.sol",
  "abi": [
    {
      "inputs": [
        {
          "internalType": "string",
          "name": "uri_",
          "type": "string"
        },
        {
          "internalType": "address",
          "name": "superAdmin_",
          "type": "address"
        }
      ],
      "stateMutability": "nonpayable",
      "type": "constructor"
    },
    {
      "anonymous": false,
      "inputs": [
        {
          "indexed": true,
          "internalType": "address",
          "name": "account",
          "type": "address"
        },
        {
          "indexed": true,
          "internalType": "address",
          "name": "operator",
          "type": "address"
        },
        {
          "indexed": false,
          "internalType": "bool",
          "name": "approved",
          "type": "bool"
        }
      ],
      "name": "ApprovalForAll",
      "type": "event"
    },
    {
      "anonymous": false,
      "inputs": [
        {
          "indexed": true,
          "internalType": "address",
          "name": "operator",
          "type": "address"
        },
        {
          "indexed": true,
          "internalType": "address",
          "name": "from",
          "type": "address"
        },
        {
          "indexed": true,
          "internalType": "address",
          "name": "to",
          "type": "address"
        },
        {
          "indexed": false,
          "internalType": "uint256[]",
          "name": "ids",
          "type": "uint256[]"
        },
        {
          "indexed": false,
          "internalType": "uint256[]",
          "name": "values",
          "type": "uint256[]"
        }
      ],
      "name": "TransferBatch",
      "type": "event"
    },
    {
      "anonymous": false,
      "inputs": [
        {
          "indexed": true,
          "internalType": "address",
          "name": "operator",
          "type": "address"
        },
        {
          "indexed": true,
          "internalType": "address",
          "name": "from",
          "type": "address"
        },
        {
          "indexed": true,
          "internalType": "address",
          "name": "to",
          "type": "address"
        },
        {
          "indexed": false,
          "internalType": "uint256",
          "name": "id",
          "type": "uint256"
        },
        {
          "indexed": false,
          "internalType": "uint256",
          "name": "value",
          "type": "uint256"
        }
      ],
      "name": "TransferSingle",
      "type": "event"
    },
    {
      "anonymous": false,
      "inputs": [
        {
          "indexed": false,
          "internalType": "string",
          "name": "value",
          "type": "string"
        },
        {
          "indexed": true,
          "internalType": "uint256",
          "name": "id",
          "type": "uint256"
        }
      ],
      "name": "URI",
      "type": "event"
    },
    {
      "inputs": [
        {
          "internalType": "address[]",
          "name": "newAdmins",
          "type": "address[]"
        }
      ],
      "name": "addAdmins",
      "outputs": [],
      "stateMutability": "nonpayable",
      "type": "function"
    },
    {
      "inputs": [
        {
          "internalType": "address[]",
          "name": "attendees",
          "type": "address[]"
        },
        {
          "internalType": "uint256",
          "name": "id",
          "type": "uint256"
        },
        {
          "internalType": "uint256",
          "name": "amount",
          "type": "uint256"
        },
        {
          "internalType": "bytes",
          "name": "data",
          "type": "bytes"
        }
      ],
      "name": "airdrop",
      "outputs": [],
      "stateMutability": "nonpayable",
      "type": "function"
    },
    {
      "inputs": [
        {
          "internalType": "address",
          "name": "account",
          "type": "address"
        },
        {
          "internalType": "uint256",
          "name": "id",
          "type": "uint256"
        }
      ],
      "name": "balanceOf",
      "outputs": [
        {
          "internalType": "uint256",
          "name": "",
          "type": "uint256"
        }
      ],
      "stateMutability": "view",
      "type": "function"
    },
    {
      "inputs": [
        {
          "internalType": "address[]",
          "name": "accounts",
          "type": "address[]"
        },
        {
          "internalType": "uint256[]",
          "name": "ids",
          "type": "uint256[]"
        }
      ],
      "name": "balanceOfBatch",
      "outputs": [
        {
          "internalType": "uint256[]",
          "name": "",
          "type": "uint256[]"
        }
      ],
      "stateMutability": "view",
      "type": "function"
    },
    {
      "inputs": [],
      "name": "getAdmins",
      "outputs": [
        {
          "internalType": "address[]",
          "name": "",
          "type": "address[]"
        }
      ],
      "stateMutability": "view",
      "type": "function"
    },
    {
      "inputs": [],
      "name": "getBurn",
      "outputs": [
        {
          "internalType": "bool",
          "name": "",
          "type": "bool"
        }
      ],
      "stateMutability": "view",
      "type": "function"
    },
    {
      "inputs": [],
      "name": "getSuperAdmin",
      "outputs": [
        {
          "internalType": "address",
          "name": "",
          "type": "address"
        }
      ],
      "stateMutability": "view",
      "type": "function"
    },
    {
      "inputs": [],
      "name": "getTransfer",
      "outputs": [
        {
          "internalType": "bool",
          "name": "",
          "type": "bool"
        }
      ],
      "stateMutability": "view",
      "type": "function"
    },
    {
      "inputs": [
        {
          "internalType": "address",
          "name": "account",
          "type": "address"
        },
        {
          "internalType": "address",
          "name": "operator",
          "type": "address"
        }
      ],
      "name": "isApprovedForAll",
      "outputs": [
        {
          "internalType": "bool",
          "name": "",
          "type": "bool"
        }
      ],
      "stateMutability": "view",
      "type": "function"
    },
    {
      "inputs": [
        {
          "internalType": "address[]",
          "name": "oldAdmins",
          "type": "address[]"
        }
      ],
      "name": "removeAdmins",
      "outputs": [],
      "stateMutability": "nonpayable",
      "type": "function"
    },
    {
      "inputs": [
        {
          "internalType": "address",
          "name": "from",
          "type": "address"
        },
        {
          "internalType": "address",
          "name": "to",
          "type": "address"
        },
        {
          "internalType": "uint256[]",
          "name": "ids",
          "type": "uint256[]"
        },
        {
          "internalType": "uint256[]",
          "name": "amounts",
          "type": "uint256[]"
        },
        {
          "internalType": "bytes",
          "name": "data",
          "type": "bytes"
        }
      ],
      "name": "safeBatchTransferFrom",
      "outputs": [],
      "stateMutability": "nonpayable",
      "type": "function"
    },
    {
      "inputs": [
        {
          "internalType": "address",
          "name": "from",
          "type": "address"
        },
        {
          "internalType": "address",
          "name": "to",
          "type": "address"
        },
        {
          "internalType": "uint256",
          "name": "id",
          "type": "uint256"
        },
        {
          "internalType": "uint256",
          "name": "amount",
          "type": "uint256"
        },
        {
          "internalType": "bytes",
          "name": "data",
          "type": "bytes"
        }
      ],
      "name": "safeTransferFrom",
      "outputs": [],
      "stateMutability": "nonpayable",
      "type": "function"
    },
    {
      "inputs": [
        {
          "internalType": "address",
          "name": "operator",
          "type": "address"
        },
        {
          "internalType": "bool",
          "name": "approved",
          "type": "bool"
        }
      ],
      "name": "setApprovalForAll",
      "outputs": [],
      "stateMutability": "nonpayable",
      "type": "function"
    },
    {
      "inputs": [
        {
          "internalType": "bool",
          "name": "status",
          "type": "bool"
        }
      ],
      "name": "setBurn",
      "outputs": [],
      "stateMutability": "nonpayable",
      "type": "function"
    },
    {
      "inputs": [
        {
          "internalType": "address",
          "name": "newSuperAdmin",
          "type": "address"
        }
      ],
      "name": "setSuperAdmin",
      "outputs": [],
      "stateMutability": "nonpayable",
      "type": "function"
    },
    {
      "inputs": [
        {
          "internalType": "bool",
          "name": "status",
          "type": "bool"
        }
      ],
      "name": "setTransfer",
      "outputs": [],
      "stateMutability": "nonpayable",
      "type": "function"
    },
    {
      "inputs": [
        {
          "internalType": "bytes4",
          "name": "interfaceId",
          "type": "bytes4"
        }
      ],
      "name": "supportsInterface",
      "outputs": [
        {
          "internalType": "bool",
          "name": "",
          "type": "bool"
        }
      ],
      "stateMutability": "view",
      "type": "function"
    },
    {
      "inputs": [
        {
          "internalType": "uint256",
          "name": "",
          "type": "uint256"
        }
      ],
      "name": "uri",
      "outputs": [
        {
          "internalType": "string",
          "name": "",
          "type": "string"
        }
      ],
      "stateMutability": "view",
      "type": "function"
    }
  ],
  "bytecode": "0x60806040523480156200001157600080fd5b5060405162003bc038038062003bc0833981810160405281019062000037919062000381565b81600290805190602001906200004f929190620000cf565b5080600560006101000a81548173ffffffffffffffffffffffffffffffffffffffff021916908373ffffffffffffffffffffffffffffffffffffffff1602179055506000600360006101000a81548160ff0219169083151502179055506000600360016101000a81548160ff02191690831515021790555050506200044c565b828054620000dd9062000416565b90600052602060002090601f0160209004810192826200010157600085556200014d565b82601f106200011c57805160ff19168380011785556200014d565b828001600101855582156200014d579182015b828111156200014c5782518255916020019190600101906200012f565b5b5090506200015c919062000160565b5090565b5b808211156200017b57600081600090555060010162000161565b5090565b6000604051905090565b600080fd5b600080fd5b600080fd5b600080fd5b6000601f19601f8301169050919050565b7f4e487b7100000000000000000000000000000000000000000000000000000000600052604160045260246000fd5b620001e8826200019d565b810181811067ffffffffffffffff821117156200020a5762000209620001ae565b5b80604052505050565b60006200021f6200017f565b90506200022d8282620001dd565b919050565b600067ffffffffffffffff82111562000250576200024f620001ae565b5b6200025b826200019d565b9050602081019050919050565b60005b83811015620002885780820151818401526020810190506200026b565b8381111562000298576000848401525b50505050565b6000620002b5620002af8462000232565b62000213565b905082815260208101848484011115620002d457620002d362000198565b5b620002e184828562000268565b509392505050565b600082601f83011262000301576200030062000193565b5b8151620003138482602086016200029e565b91505092915050565b600073ffffffffffffffffffffffffffffffffffffffff82169050919050565b600062000349826200031c565b9050919050565b6200035b816200033c565b81146200036757600080fd5b50565b6000815190506200037b8162000350565b92915050565b600080604083850312156200039b576200039a62000189565b5b600083015167ffffffffffffffff811115620003bc57620003bb6200018e565b5b620003ca85828601620002e9565b9250506020620003dd858286016200036a565b9150509250929050565b7f4e487b7100000000000000000000000000000000000000000000000000000000600052602260045260246000fd5b600060028204905060018216806200042f57607f821691505b60208210811415620004465762000445620003e7565b5b50919050565b613764806200045c6000396000f3fe608060405234801561001057600080fd5b50600436106101155760003560e01c80638204c326116100a2578063b87141bf11610071578063b87141bf146102da578063b8ccaedd146102f8578063bd55cf0d14610316578063e985e9c514610332578063f242432a1461036257610115565b80638204c326146102685780639c54df6414610286578063a22cb465146102a2578063a296b323146102be57610115565b80632eb2c2d6116100e95780632eb2c2d6146101c657806331ae450b146101e2578063377e11e0146102005780634e1273f41461021c578063562592ef1461024c57610115565b8062fdd58e1461011a57806301ffc9a71461014a5780630e89341c1461017a57806315700052146101aa575b600080fd5b610134600480360381019061012f9190612174565b61037e565b60405161014191906121c3565b60405180910390f35b610164600480360381019061015f9190612236565b610447565b604051610171919061227e565b60405180910390f35b610194600480360381019061018f9190612299565b610529565b6040516101a1919061235f565b60405180910390f35b6101c460048036038101906101bf9190612381565b6105bd565b005b6101e060048036038101906101db91906125ab565b610691565b005b6101ea61074a565b6040516101f79190612738565b60405180910390f35b61021a6004803603810190610215919061281d565b6107d8565b005b61023660048036038101906102319190612866565b610a5d565b604051610243919061299c565b60405180910390f35b610266600480360381019061026191906129be565b610b76565b005b610270610d03565b60405161027d9190612a6c565b60405180910390f35b6102a0600480360381019061029b919061281d565b610d2d565b005b6102bc60048036038101906102b79190612ab3565b610e5d565b005b6102d860048036038101906102d39190612af3565b610e73565b005b6102e2610f20565b6040516102ef919061227e565b60405180910390f35b610300610f37565b60405161030d919061227e565b60405180910390f35b610330600480360381019061032b9190612af3565b610f4e565b005b61034c60048036038101906103479190612b20565b610ffb565b604051610359919061227e565b60405180910390f35b61037c60048036038101906103779190612b60565b61108f565b005b60008073ffffffffffffffffffffffffffffffffffffffff168373ffffffffffffffffffffffffffffffffffffffff1614156103ef576040517f08c379a00000000000000000000000000000000000000000000000000000000081526004016103e690612c69565b60405180910390fd5b60008083815260200190815260200160002060008473ffffffffffffffffffffffffffffffffffffffff1673ffffffffffffffffffffffffffffffffffffffff16815260200190815260200160002054905092915050565b60007fd9b67a26000000000000000000000000000000000000000000000000000000007bffffffffffffffffffffffffffffffffffffffffffffffffffffffff1916827bffffffffffffffffffffffffffffffffffffffffffffffffffffffff1916148061051257507f0e89341c000000000000000000000000000000000000000000000000000000007bffffffffffffffffffffffffffffffffffffffffffffffffffffffff1916827bffffffffffffffffffffffffffffffffffffffffffffffffffffffff1916145b80610522575061052182611148565b5b9050919050565b60606002805461053890612cb8565b80601f016020809104026020016040519081016040528092919081815260200182805461056490612cb8565b80156105b15780601f10610586576101008083540402835291602001916105b1565b820191906000526020600020905b81548152906001019060200180831161059457829003601f168201915b50505050509050919050565b600560009054906101000a900473ffffffffffffffffffffffffffffffffffffffff1673ffffffffffffffffffffffffffffffffffffffff163373ffffffffffffffffffffffffffffffffffffffff161461064d576040517f08c379a000000000000000000000000000000000000000000000000000000000815260040161064490612d36565b60405180910390fd5b80600560006101000a81548173ffffffffffffffffffffffffffffffffffffffff021916908373ffffffffffffffffffffffffffffffffffffffff16021790555050565b600360009054906101000a900460ff1680156106f757506106b06111b2565b73ffffffffffffffffffffffffffffffffffffffff168573ffffffffffffffffffffffffffffffffffffffff1614806106f657506106f5856106f06111b2565b610ffb565b5b5b610736576040517f08c379a000000000000000000000000000000000000000000000000000000000815260040161072d90612dc8565b60405180910390fd5b61074385858585856111ba565b5050505050565b606060048054806020026020016040519081016040528092919081815260200182805480156107ce57602002820191906000526020600020905b8160009054906101000a900473ffffffffffffffffffffffffffffffffffffffff1673ffffffffffffffffffffffffffffffffffffffff1681526020019060010190808311610784575b5050505050905090565b600560009054906101000a900473ffffffffffffffffffffffffffffffffffffffff1673ffffffffffffffffffffffffffffffffffffffff163373ffffffffffffffffffffffffffffffffffffffff1614610868576040517f08c379a000000000000000000000000000000000000000000000000000000000815260040161085f90612d36565b60405180910390fd5b60005b8151811015610a595760005b600480549050811015610a45576004818154811061089857610897612de8565b5b9060005260206000200160009054906101000a900473ffffffffffffffffffffffffffffffffffffffff1673ffffffffffffffffffffffffffffffffffffffff168383815181106108ec576108eb612de8565b5b602002602001015173ffffffffffffffffffffffffffffffffffffffff161415610a325760008190505b60016004805490506109289190612e46565b8110156109e957600460018261093e9190612e7a565b8154811061094f5761094e612de8565b5b9060005260206000200160009054906101000a900473ffffffffffffffffffffffffffffffffffffffff166004828154811061098e5761098d612de8565b5b9060005260206000200160006101000a81548173ffffffffffffffffffffffffffffffffffffffff021916908373ffffffffffffffffffffffffffffffffffffffff16021790555080806109e190612ed0565b915050610916565b60048054806109fb576109fa612f19565b5b6001900381819060005260206000200160006101000a81549073ffffffffffffffffffffffffffffffffffffffff02191690559055505b8080610a3d90612ed0565b915050610877565b508080610a5190612ed0565b91505061086b565b5050565b60608151835114610aa3576040517f08c379a0000000000000000000000000000000000000000000000000000000008152600401610a9a90612fba565b60405180910390fd5b6000835167ffffffffffffffff811115610ac057610abf6123b3565b5b604051908082528060200260200182016040528015610aee5781602001602082028036833780820191505090505b50905060005b8451811015610b6b57610b3b858281518110610b1357610b12612de8565b5b6020026020010151858381518110610b2e57610b2d612de8565b5b602002602001015161037e565b828281518110610b4e57610b4d612de8565b5b60200260200101818152505080610b6490612ed0565b9050610af4565b508091505092915050565b6000600560009054906101000a900473ffffffffffffffffffffffffffffffffffffffff1673ffffffffffffffffffffffffffffffffffffffff163373ffffffffffffffffffffffffffffffffffffffff1614905080610c705760005b600480549050811015610c6e5760048181548110610bf457610bf3612de8565b5b9060005260206000200160009054906101000a900473ffffffffffffffffffffffffffffffffffffffff1673ffffffffffffffffffffffffffffffffffffffff163373ffffffffffffffffffffffffffffffffffffffff161415610c5b5760019150610c6e565b8080610c6690612ed0565b915050610bd3565b505b80610cb0576040517f08c379a0000000000000000000000000000000000000000000000000000000008152600401610ca790613026565b60405180910390fd5b60008551905060005b81811015610cfa57610ce7878281518110610cd757610cd6612de8565b5b602002602001015187878761152b565b8080610cf290612ed0565b915050610cb9565b50505050505050565b6000600560009054906101000a900473ffffffffffffffffffffffffffffffffffffffff16905090565b600560009054906101000a900473ffffffffffffffffffffffffffffffffffffffff1673ffffffffffffffffffffffffffffffffffffffff163373ffffffffffffffffffffffffffffffffffffffff1614610dbd576040517f08c379a0000000000000000000000000000000000000000000000000000000008152600401610db490612d36565b60405180910390fd5b60005b8151811015610e59576004828281518110610dde57610ddd612de8565b5b60200260200101519080600181540180825580915050600190039060005260206000200160009091909190916101000a81548173ffffffffffffffffffffffffffffffffffffffff021916908373ffffffffffffffffffffffffffffffffffffffff1602179055508080610e5190612ed0565b915050610dc0565b5050565b610e6f610e686111b2565b8383611817565b5050565b600560009054906101000a900473ffffffffffffffffffffffffffffffffffffffff1673ffffffffffffffffffffffffffffffffffffffff163373ffffffffffffffffffffffffffffffffffffffff1614610f03576040517f08c379a0000000000000000000000000000000000000000000000000000000008152600401610efa90612d36565b60405180910390fd5b80600360006101000a81548160ff02191690831515021790555050565b6000600360009054906101000a900460ff16905090565b6000600360019054906101000a900460ff16905090565b600560009054906101000a900473ffffffffffffffffffffffffffffffffffffffff1673ffffffffffffffffffffffffffffffffffffffff163373ffffffffffffffffffffffffffffffffffffffff1614610fde576040517f08c379a0000000000000000000000000000000000000000000000000000000008152600401610fd590612d36565b60405180910390fd5b80600360016101000a81548160ff02191690831515021790555050565b6000600160008473ffffffffffffffffffffffffffffffffffffffff1673ffffffffffffffffffffffffffffffffffffffff16815260200190815260200160002060008373ffffffffffffffffffffffffffffffffffffffff1673ffffffffffffffffffffffffffffffffffffffff16815260200190815260200160002060009054906101000a900460ff16905092915050565b600360009054906101000a900460ff1680156110f557506110ae6111b2565b73ffffffffffffffffffffffffffffffffffffffff168573ffffffffffffffffffffffffffffffffffffffff1614806110f457506110f3856110ee6111b2565b610ffb565b5b5b611134576040517f08c379a000000000000000000000000000000000000000000000000000000000815260040161112b90612dc8565b60405180910390fd5b6111418585858585611984565b5050505050565b60007f01ffc9a7000000000000000000000000000000000000000000000000000000007bffffffffffffffffffffffffffffffffffffffffffffffffffffffff1916827bffffffffffffffffffffffffffffffffffffffffffffffffffffffff1916149050919050565b600033905090565b600360009054906101000a900460ff16611209576040517f08c379a000000000000000000000000000000000000000000000000000000000815260040161120090613092565b60405180910390fd5b815183511461124d576040517f08c379a000000000000000000000000000000000000000000000000000000000815260040161124490613124565b60405180910390fd5b600073ffffffffffffffffffffffffffffffffffffffff168473ffffffffffffffffffffffffffffffffffffffff1614156112bd576040517f08c379a00000000000000000000000000000000000000000000000000000000081526004016112b4906131b6565b60405180910390fd5b60006112c76111b2565b90506112d7818787878787611c6f565b60005b84518110156114885760008582815181106112f8576112f7612de8565b5b60200260200101519050600085838151811061131757611316612de8565b5b60200260200101519050600080600084815260200190815260200160002060008b73ffffffffffffffffffffffffffffffffffffffff1673ffffffffffffffffffffffffffffffffffffffff168152602001908152602001600020549050818110156113b8576040517f08c379a00000000000000000000000000000000000000000000000000000000081526004016113af90613248565b60405180910390fd5b81810360008085815260200190815260200160002060008c73ffffffffffffffffffffffffffffffffffffffff1673ffffffffffffffffffffffffffffffffffffffff168152602001908152602001600020819055508160008085815260200190815260200160002060008b73ffffffffffffffffffffffffffffffffffffffff1673ffffffffffffffffffffffffffffffffffffffff168152602001908152602001600020600082825461146d9190612e7a565b925050819055505050508061148190612ed0565b90506112da565b508473ffffffffffffffffffffffffffffffffffffffff168673ffffffffffffffffffffffffffffffffffffffff168273ffffffffffffffffffffffffffffffffffffffff167f4a39dc06d4c0dbc64b70af90fd698a233a518aa5d07e595d983b8c0526c8f7fb87876040516114ff929190613268565b60405180910390a4611515818787878787611c77565b611523818787878787611c7f565b505050505050565b6000600560009054906101000a900473ffffffffffffffffffffffffffffffffffffffff1673ffffffffffffffffffffffffffffffffffffffff163373ffffffffffffffffffffffffffffffffffffffff16149050806116255760005b60048054905081101561162357600481815481106115a9576115a8612de8565b5b9060005260206000200160009054906101000a900473ffffffffffffffffffffffffffffffffffffffff1673ffffffffffffffffffffffffffffffffffffffff163373ffffffffffffffffffffffffffffffffffffffff1614156116105760019150611623565b808061161b90612ed0565b915050611588565b505b80611665576040517f08c379a000000000000000000000000000000000000000000000000000000000815260040161165c90613026565b60405180910390fd5b600073ffffffffffffffffffffffffffffffffffffffff168573ffffffffffffffffffffffffffffffffffffffff1614156116d5576040517f08c379a00000000000000000000000000000000000000000000000000000000081526004016116cc90613311565b60405180910390fd5b60006116df6111b2565b905060006116ec86611e57565b905060006116f986611e57565b905061170a8360008a85858a611c6f565b8560008089815260200190815260200160002060008a73ffffffffffffffffffffffffffffffffffffffff1673ffffffffffffffffffffffffffffffffffffffff16815260200190815260200160002060008282546117699190612e7a565b925050819055508773ffffffffffffffffffffffffffffffffffffffff16600073ffffffffffffffffffffffffffffffffffffffff168473ffffffffffffffffffffffffffffffffffffffff167fc3d58168c5ae7397731d063d5bbf3d657854427343f4c083240f7aacaa2d0f628a8a6040516117e7929190613331565b60405180910390a46117fe8360008a85858a611c77565b61180d8360008a8a8a8a611ed1565b5050505050505050565b8173ffffffffffffffffffffffffffffffffffffffff168373ffffffffffffffffffffffffffffffffffffffff161415611886576040517f08c379a000000000000000000000000000000000000000000000000000000000815260040161187d906133cc565b60405180910390fd5b80600160008573ffffffffffffffffffffffffffffffffffffffff1673ffffffffffffffffffffffffffffffffffffffff16815260200190815260200160002060008473ffffffffffffffffffffffffffffffffffffffff1673ffffffffffffffffffffffffffffffffffffffff16815260200190815260200160002060006101000a81548160ff0219169083151502179055508173ffffffffffffffffffffffffffffffffffffffff168373ffffffffffffffffffffffffffffffffffffffff167f17307eab39ab6107e8899845ad3d59bd9653f200f220920489ca2b5937696c3183604051611977919061227e565b60405180910390a3505050565b600360009054906101000a900460ff166119d3576040517f08c379a00000000000000000000000000000000000000000000000000000000081526004016119ca90613092565b60405180910390fd5b600073ffffffffffffffffffffffffffffffffffffffff168473ffffffffffffffffffffffffffffffffffffffff161415611a43576040517f08c379a0000000000000000000000000000000000000000000000000000000008152600401611a3a906131b6565b60405180910390fd5b6000611a4d6111b2565b90506000611a5a85611e57565b90506000611a6785611e57565b9050611a77838989858589611c6f565b600080600088815260200190815260200160002060008a73ffffffffffffffffffffffffffffffffffffffff1673ffffffffffffffffffffffffffffffffffffffff16815260200190815260200160002054905085811015611b0e576040517f08c379a0000000000000000000000000000000000000000000000000000000008152600401611b0590613248565b60405180910390fd5b85810360008089815260200190815260200160002060008b73ffffffffffffffffffffffffffffffffffffffff1673ffffffffffffffffffffffffffffffffffffffff168152602001908152602001600020819055508560008089815260200190815260200160002060008a73ffffffffffffffffffffffffffffffffffffffff1673ffffffffffffffffffffffffffffffffffffffff1681526020019081526020016000206000828254611bc39190612e7a565b925050819055508773ffffffffffffffffffffffffffffffffffffffff168973ffffffffffffffffffffffffffffffffffffffff168573ffffffffffffffffffffffffffffffffffffffff167fc3d58168c5ae7397731d063d5bbf3d657854427343f4c083240f7aacaa2d0f628a8a604051611c40929190613331565b60405180910390a4611c56848a8a86868a611c77565b611c64848a8a8a8a8a611ed1565b505050505050505050565b505050505050565b505050505050565b611c9e8473ffffffffffffffffffffffffffffffffffffffff166120a9565b15611e4f578373ffffffffffffffffffffffffffffffffffffffff1663bc197c8187878686866040518663ffffffff1660e01b8152600401611ce4959493929190613441565b6020604051808303816000875af1925050508015611d2057506040513d601f19601f82011682018060405250810190611d1d91906134be565b60015b611dc657611d2c6134f8565b806308c379a01415611d895750611d4161351a565b80611d4c5750611d8b565b806040517f08c379a0000000000000000000000000000000000000000000000000000000008152600401611d80919061235f565b60405180910390fd5b505b6040517f08c379a0000000000000000000000000000000000000000000000000000000008152600401611dbd90613622565b60405180910390fd5b63bc197c8160e01b7bffffffffffffffffffffffffffffffffffffffffffffffffffffffff1916817bffffffffffffffffffffffffffffffffffffffffffffffffffffffff191614611e4d576040517f08c379a0000000000000000000000000000000000000000000000000000000008152600401611e44906136b4565b60405180910390fd5b505b505050505050565b60606000600167ffffffffffffffff811115611e7657611e756123b3565b5b604051908082528060200260200182016040528015611ea45781602001602082028036833780820191505090505b5090508281600081518110611ebc57611ebb612de8565b5b60200260200101818152505080915050919050565b611ef08473ffffffffffffffffffffffffffffffffffffffff166120a9565b156120a1578373ffffffffffffffffffffffffffffffffffffffff1663f23a6e6187878686866040518663ffffffff1660e01b8152600401611f369594939291906136d4565b6020604051808303816000875af1925050508015611f7257506040513d601f19601f82011682018060405250810190611f6f91906134be565b60015b61201857611f7e6134f8565b806308c379a01415611fdb5750611f9361351a565b80611f9e5750611fdd565b806040517f08c379a0000000000000000000000000000000000000000000000000000000008152600401611fd2919061235f565b60405180910390fd5b505b6040517f08c379a000000000000000000000000000000000000000000000000000000000815260040161200f90613622565b60405180910390fd5b63f23a6e6160e01b7bffffffffffffffffffffffffffffffffffffffffffffffffffffffff1916817bffffffffffffffffffffffffffffffffffffffffffffffffffffffff19161461209f576040517f08c379a0000000000000000000000000000000000000000000000000000000008152600401612096906136b4565b60405180910390fd5b505b505050505050565b6000808273ffffffffffffffffffffffffffffffffffffffff163b119050919050565b6000604051905090565b600080fd5b600080fd5b600073ffffffffffffffffffffffffffffffffffffffff82169050919050565b600061210b826120e0565b9050919050565b61211b81612100565b811461212657600080fd5b50565b60008135905061213881612112565b92915050565b6000819050919050565b6121518161213e565b811461215c57600080fd5b50565b60008135905061216e81612148565b92915050565b6000806040838503121561218b5761218a6120d6565b5b600061219985828601612129565b92505060206121aa8582860161215f565b9150509250929050565b6121bd8161213e565b82525050565b60006020820190506121d860008301846121b4565b92915050565b60007fffffffff0000000000000000000000000000000000000000000000000000000082169050919050565b612213816121de565b811461221e57600080fd5b50565b6000813590506122308161220a565b92915050565b60006020828403121561224c5761224b6120d6565b5b600061225a84828501612221565b91505092915050565b60008115159050919050565b61227881612263565b82525050565b6000602082019050612293600083018461226f565b92915050565b6000602082840312156122af576122ae6120d6565b5b60006122bd8482850161215f565b91505092915050565b600081519050919050565b600082825260208201905092915050565b60005b838110156123005780820151818401526020810190506122e5565b8381111561230f576000848401525b50505050565b6000601f19601f8301169050919050565b6000612331826122c6565b61233b81856122d1565b935061234b8185602086016122e2565b61235481612315565b840191505092915050565b600060208201905081810360008301526123798184612326565b905092915050565b600060208284031215612397576123966120d6565b5b60006123a584828501612129565b91505092915050565b600080fd5b7f4e487b7100000000000000000000000000000000000000000000000000000000600052604160045260246000fd5b6123eb82612315565b810181811067ffffffffffffffff8211171561240a576124096123b3565b5b80604052505050565b600061241d6120cc565b905061242982826123e2565b919050565b600067ffffffffffffffff821115612449576124486123b3565b5b602082029050602081019050919050565b600080fd5b600061247261246d8461242e565b612413565b905080838252602082019050602084028301858111156124955761249461245a565b5b835b818110156124be57806124aa888261215f565b845260208401935050602081019050612497565b5050509392505050565b600082601f8301126124dd576124dc6123ae565b5b81356124ed84826020860161245f565b91505092915050565b600080fd5b600067ffffffffffffffff821115612516576125156123b3565b5b61251f82612315565b9050602081019050919050565b82818337600083830152505050565b600061254e612549846124fb565b612413565b90508281526020810184848401111561256a576125696124f6565b5b61257584828561252c565b509392505050565b600082601f830112612592576125916123ae565b5b81356125a284826020860161253b565b91505092915050565b600080600080600060a086880312156125c7576125c66120d6565b5b60006125d588828901612129565b95505060206125e688828901612129565b945050604086013567ffffffffffffffff811115612607576126066120db565b5b612613888289016124c8565b935050606086013567ffffffffffffffff811115612634576126336120db565b5b612640888289016124c8565b925050608086013567ffffffffffffffff811115612661576126606120db565b5b61266d8882890161257d565b9150509295509295909350565b600081519050919050565b600082825260208201905092915050565b6000819050602082019050919050565b6126af81612100565b82525050565b60006126c183836126a6565b60208301905092915050565b6000602082019050919050565b60006126e58261267a565b6126ef8185612685565b93506126fa83612696565b8060005b8381101561272b57815161271288826126b5565b975061271d836126cd565b9250506001810190506126fe565b5085935050505092915050565b6000602082019050818103600083015261275281846126da565b905092915050565b600067ffffffffffffffff821115612775576127746123b3565b5b602082029050602081019050919050565b60006127996127948461275a565b612413565b905080838252602082019050602084028301858111156127bc576127bb61245a565b5b835b818110156127e557806127d18882612129565b8452602084019350506020810190506127be565b5050509392505050565b600082601f830112612804576128036123ae565b5b8135612814848260208601612786565b91505092915050565b600060208284031215612833576128326120d6565b5b600082013567ffffffffffffffff811115612851576128506120db565b5b61285d848285016127ef565b91505092915050565b6000806040838503121561287d5761287c6120d6565b5b600083013567ffffffffffffffff81111561289b5761289a6120db565b5b6128a7858286016127ef565b925050602083013567ffffffffffffffff8111156128c8576128c76120db565b5b6128d4858286016124c8565b9150509250929050565b600081519050919050565b600082825260208201905092915050565b6000819050602082019050919050565b6129138161213e565b82525050565b6000612925838361290a565b60208301905092915050565b6000602082019050919050565b6000612949826128de565b61295381856128e9565b935061295e836128fa565b8060005b8381101561298f5781516129768882612919565b975061298183612931565b925050600181019050612962565b5085935050505092915050565b600060208201905081810360008301526129b6818461293e565b905092915050565b600080600080608085870312156129d8576129d76120d6565b5b600085013567ffffffffffffffff8111156129f6576129f56120db565b5b612a02878288016127ef565b9450506020612a138782880161215f565b9350506040612a248782880161215f565b925050606085013567ffffffffffffffff811115612a4557612a446120db565b5b612a518782880161257d565b91505092959194509250565b612a6681612100565b82525050565b6000602082019050612a816000830184612a5d565b92915050565b612a9081612263565b8114612a9b57600080fd5b50565b600081359050612aad81612a87565b92915050565b60008060408385031215612aca57612ac96120d6565b5b6000612ad885828601612129565b9250506020612ae985828601612a9e565b9150509250929050565b600060208284031215612b0957612b086120d6565b5b6000612b1784828501612a9e565b91505092915050565b60008060408385031215612b3757612b366120d6565b5b6000612b4585828601612129565b9250506020612b5685828601612129565b9150509250929050565b600080600080600060a08688031215612b7c57612b7b6120d6565b5b6000612b8a88828901612129565b9550506020612b9b88828901612129565b9450506040612bac8882890161215f565b9350506060612bbd8882890161215f565b925050608086013567ffffffffffffffff811115612bde57612bdd6120db565b5b612bea8882890161257d565b9150509295509295909350565b7f455243313135353a2061646472657373207a65726f206973206e6f742061207660008201527f616c6964206f776e657200000000000000000000000000000000000000000000602082015250565b6000612c53602a836122d1565b9150612c5e82612bf7565b604082019050919050565b60006020820190508181036000830152612c8281612c46565b9050919050565b7f4e487b7100000000000000000000000000000000000000000000000000000000600052602260045260246000fd5b60006002820490506001821680612cd057607f821691505b60208210811415612ce457612ce3612c89565b5b50919050565b7f4e6f742073757065722061646d696e0000000000000000000000000000000000600082015250565b6000612d20600f836122d1565b9150612d2b82612cea565b602082019050919050565b60006020820190508181036000830152612d4f81612d13565b9050919050565b7f455243313135353a2063616c6c6572206973206e6f7420746f6b656e206f776e60008201527f6572206e6f7220617070726f7665640000000000000000000000000000000000602082015250565b6000612db2602f836122d1565b9150612dbd82612d56565b604082019050919050565b60006020820190508181036000830152612de181612da5565b9050919050565b7f4e487b7100000000000000000000000000000000000000000000000000000000600052603260045260246000fd5b7f4e487b7100000000000000000000000000000000000000000000000000000000600052601160045260246000fd5b6000612e518261213e565b9150612e5c8361213e565b925082821015612e6f57612e6e612e17565b5b828203905092915050565b6000612e858261213e565b9150612e908361213e565b9250827fffffffffffffffffffffffffffffffffffffffffffffffffffffffffffffffff03821115612ec557612ec4612e17565b5b828201905092915050565b6000612edb8261213e565b91507fffffffffffffffffffffffffffffffffffffffffffffffffffffffffffffffff821415612f0e57612f0d612e17565b5b600182019050919050565b7f4e487b7100000000000000000000000000000000000000000000000000000000600052603160045260246000fd5b7f455243313135353a206163636f756e747320616e6420696473206c656e67746860008201527f206d69736d617463680000000000000000000000000000000000000000000000602082015250565b6000612fa46029836122d1565b9150612faf82612f48565b604082019050919050565b60006020820190508181036000830152612fd381612f97565b9050919050565b7f4e6f742061646d696e0000000000000000000000000000000000000000000000600082015250565b60006130106009836122d1565b915061301b82612fda565b602082019050919050565b6000602082019050818103600083015261303f81613003565b9050919050565b7f547261736e666572732064697361626c65640000000000000000000000000000600082015250565b600061307c6012836122d1565b915061308782613046565b602082019050919050565b600060208201905081810360008301526130ab8161306f565b9050919050565b7f455243313135353a2069647320616e6420616d6f756e7473206c656e6774682060008201527f6d69736d61746368000000000000000000000000000000000000000000000000602082015250565b600061310e6028836122d1565b9150613119826130b2565b604082019050919050565b6000602082019050818103600083015261313d81613101565b9050919050565b7f455243313135353a207472616e7366657220746f20746865207a65726f20616460008201527f6472657373000000000000000000000000000000000000000000000000000000602082015250565b60006131a06025836122d1565b91506131ab82613144565b604082019050919050565b600060208201905081810360008301526131cf81613193565b9050919050565b7f455243313135353a20696e73756666696369656e742062616c616e636520666f60008201527f72207472616e7366657200000000000000000000000000000000000000000000602082015250565b6000613232602a836122d1565b915061323d826131d6565b604082019050919050565b6000602082019050818103600083015261326181613225565b9050919050565b60006040820190508181036000830152613282818561293e565b90508181036020830152613296818461293e565b90509392505050565b7f455243313135353a206d696e7420746f20746865207a65726f2061646472657360008201527f7300000000000000000000000000000000000000000000000000000000000000602082015250565b60006132fb6021836122d1565b91506133068261329f565b604082019050919050565b6000602082019050818103600083015261332a816132ee565b9050919050565b600060408201905061334660008301856121b4565b61335360208301846121b4565b9392505050565b7f455243313135353a2073657474696e6720617070726f76616c2073746174757360008201527f20666f722073656c660000000000000000000000000000000000000000000000602082015250565b60006133b66029836122d1565b91506133c18261335a565b604082019050919050565b600060208201905081810360008301526133e5816133a9565b9050919050565b600081519050919050565b600082825260208201905092915050565b6000613413826133ec565b61341d81856133f7565b935061342d8185602086016122e2565b61343681612315565b840191505092915050565b600060a0820190506134566000830188612a5d565b6134636020830187612a5d565b8181036040830152613475818661293e565b90508181036060830152613489818561293e565b9050818103608083015261349d8184613408565b90509695505050505050565b6000815190506134b88161220a565b92915050565b6000602082840312156134d4576134d36120d6565b5b60006134e2848285016134a9565b91505092915050565b60008160e01c9050919050565b600060033d11156135175760046000803e6135146000516134eb565b90505b90565b600060443d101561352a576135ad565b6135326120cc565b60043d036004823e80513d602482011167ffffffffffffffff8211171561355a5750506135ad565b808201805167ffffffffffffffff81111561357857505050506135ad565b80602083010160043d0385018111156135955750505050506135ad565b6135a4826020018501866123e2565b82955050505050505b90565b7f455243313135353a207472616e7366657220746f206e6f6e204552433131353560008201527f526563656976657220696d706c656d656e746572000000000000000000000000602082015250565b600061360c6034836122d1565b9150613617826135b0565b604082019050919050565b6000602082019050818103600083015261363b816135ff565b9050919050565b7f455243313135353a204552433131353552656365697665722072656a6563746560008201527f6420746f6b656e73000000000000000000000000000000000000000000000000602082015250565b600061369e6028836122d1565b91506136a982613642565b604082019050919050565b600060208201905081810360008301526136cd81613691565b9050919050565b600060a0820190506136e96000830188612a5d565b6136f66020830187612a5d565b61370360408301866121b4565b61371060608301856121b4565b81810360808301526137228184613408565b9050969550505050505056fea2646970667358221220acb884dfc31433cda4694bcae632a7522d5785725ad825350017738164d622de64736f6c634300080a0033",
  "linkReferences": {},
  "deployedLinkReferences": {}
}